{
  "contractName": "Blockchain",
  "abi": [
    {
      "inputs": [],
      "payable": false,
      "stateMutability": "nonpayable",
      "type": "constructor"
    },
    {
      "anonymous": false,
      "inputs": [
        {
          "indexed": false,
          "internalType": "uint256",
          "name": "_id",
          "type": "uint256"
        }
      ],
      "name": "BlockAdded",
      "type": "event"
    },
    {
      "constant": true,
      "inputs": [
        {
          "internalType": "uint256",
          "name": "",
          "type": "uint256"
        }
      ],
      "name": "blocks",
      "outputs": [
        {
          "internalType": "uint256",
          "name": "id",
          "type": "uint256"
        },
        {
          "internalType": "string",
          "name": "orderId",
          "type": "string"
        },
        {
          "internalType": "string",
          "name": "orderName",
          "type": "string"
        },
        {
          "internalType": "string",
          "name": "billType",
          "type": "string"
        },
        {
          "internalType": "string",
          "name": "value",
          "type": "string"
        },
        {
          "internalType": "uint256",
          "name": "timeStamp",
          "type": "uint256"
        }
      ],
      "payable": false,
      "stateMutability": "view",
      "type": "function"
    },
    {
      "constant": true,
      "inputs": [],
      "name": "blocksCount",
      "outputs": [
        {
          "internalType": "uint256",
          "name": "",
          "type": "uint256"
        }
      ],
      "payable": false,
      "stateMutability": "view",
      "type": "function"
    },
    {
      "constant": false,
      "inputs": [
        {
          "internalType": "string",
          "name": "_orderId",
          "type": "string"
        },
        {
          "internalType": "string",
          "name": "_orderName",
          "type": "string"
        },
        {
          "internalType": "string",
          "name": "_billType",
          "type": "string"
        },
        {
          "internalType": "string",
          "name": "_value",
          "type": "string"
        },
        {
          "internalType": "uint256",
          "name": "timeStamp",
          "type": "uint256"
        }
      ],
      "name": "addBlock",
      "outputs": [],
      "payable": false,
      "stateMutability": "nonpayable",
      "type": "function"
    }
  ],
  "bytecode": "0x608060405234801561001057600080fd5b5060008081905550610982806100276000396000f3fe608060405234801561001057600080fd5b50600436106100415760003560e01c8063521b71cf146100465780637353cbcb146102d0578063f25b3f99146102ee575b600080fd5b6102ce600480360360a081101561005c57600080fd5b810190808035906020019064010000000081111561007957600080fd5b82018360208201111561008b57600080fd5b803590602001918460018302840111640100000000831117156100ad57600080fd5b91908080601f016020809104026020016040519081016040528093929190818152602001838380828437600081840152601f19601f8201169050808301925050505050505091929192908035906020019064010000000081111561011057600080fd5b82018360208201111561012257600080fd5b8035906020019184600183028401116401000000008311171561014457600080fd5b91908080601f016020809104026020016040519081016040528093929190818152602001838380828437600081840152601f19601f820116905080830192505050505050509192919290803590602001906401000000008111156101a757600080fd5b8201836020820111156101b957600080fd5b803590602001918460018302840111640100000000831117156101db57600080fd5b91908080601f016020809104026020016040519081016040528093929190818152602001838380828437600081840152601f19601f8201169050808301925050505050505091929192908035906020019064010000000081111561023e57600080fd5b82018360208201111561025057600080fd5b8035906020019184600183028401116401000000008311171561027257600080fd5b91908080601f016020809104026020016040519081016040528093929190818152602001838380828437600081840152601f19601f820116905080830192505050505050509192919290803590602001909291905050506104e7565b005b6102d8610606565b6040518082815260200191505060405180910390f35b61031a6004803603602081101561030457600080fd5b810190808035906020019092919050505061060c565b604051808781526020018060200180602001806020018060200186815260200185810385528a818151815260200191508051906020019080838360005b83811015610372578082015181840152602081019050610357565b50505050905090810190601f16801561039f5780820380516001836020036101000a031916815260200191505b50858103845289818151815260200191508051906020019080838360005b838110156103d85780820151818401526020810190506103bd565b50505050905090810190601f1680156104055780820380516001836020036101000a031916815260200191505b50858103835288818151815260200191508051906020019080838360005b8381101561043e578082015181840152602081019050610423565b50505050905090810190601f16801561046b5780820380516001836020036101000a031916815260200191505b50858103825287818151815260200191508051906020019080838360005b838110156104a4578082015181840152602081019050610489565b50505050905090810190601f1680156104d15780820380516001836020036101000a031916815260200191505b509a505050505050505050505060405180910390f35b6040518060c0016040528060005481526020018681526020018581526020018481526020018381526020018281525060016000805481526020019081526020016000206000820151816000015560208201518160010190805190602001906105509291906108a8565b50604082015181600201908051906020019061056d9291906108a8565b50606082015181600301908051906020019061058a9291906108a8565b5060808201518160040190805190602001906105a79291906108a8565b5060a082015181600501559050507fa37f9fb2f8e66e6e5746e84c33d55fc62d920182d22358f2adc6855d3ac4d4376000546040518082815260200191505060405180910390a160008081548092919060010191905055505050505050565b60005481565b6001602052806000526040600020600091509050806000015490806001018054600181600116156101000203166002900480601f0160208091040260200160405190810160405280929190818152602001828054600181600116156101000203166002900480156106be5780601f10610693576101008083540402835291602001916106be565b820191906000526020600020905b8154815290600101906020018083116106a157829003601f168201915b505050505090806002018054600181600116156101000203166002900480601f01602080910402602001604051908101604052809291908181526020018280546001816001161561010002031660029004801561075c5780601f106107315761010080835404028352916020019161075c565b820191906000526020600020905b81548152906001019060200180831161073f57829003601f168201915b505050505090806003018054600181600116156101000203166002900480601f0160208091040260200160405190810160405280929190818152602001828054600181600116156101000203166002900480156107fa5780601f106107cf576101008083540402835291602001916107fa565b820191906000526020600020905b8154815290600101906020018083116107dd57829003601f168201915b505050505090806004018054600181600116156101000203166002900480601f0160208091040260200160405190810160405280929190818152602001828054600181600116156101000203166002900480156108985780601f1061086d57610100808354040283529160200191610898565b820191906000526020600020905b81548152906001019060200180831161087b57829003601f168201915b5050505050908060050154905086565b828054600181600116156101000203166002900490600052602060002090601f016020900481019282601f106108e957805160ff1916838001178555610917565b82800160010185558215610917579182015b828111156109165782518255916020019190600101906108fb565b5b5090506109249190610928565b5090565b61094a91905b8082111561094657600081600090555060010161092e565b5090565b9056fea265627a7a723158205c72fc2519a3b8b5751d3ced198a14508188f4efd852607b1d2ef56c311c016964736f6c63430005100032",
  "source": "// SPDX-License-Identifier: MIT\r\npragma solidity >=0.4.22 <0.9.0;\r\n\r\ncontract Blockchain {\r\n    uint256 public blocksCount;\r\n    struct Blocks {\r\n        uint256 id;\r\n        string orderId;\r\n        string orderName;\r\n        string billType;\r\n        string value;\r\n        uint256 timeStamp;\r\n    }\r\n    mapping(uint256 => Blocks) public blocks;\r\n\r\n    constructor() public {\r\n        blocksCount = 0;\r\n    }\r\n\r\n    event BlockAdded(uint256 _id);\r\n\r\n    function addBlock(\r\n        string memory _orderId,\r\n        string memory _orderName,\r\n        string memory _billType,\r\n        string memory _value,\r\n        uint256 timeStamp\r\n    ) public {\r\n        blocks[blocksCount] = Blocks(\r\n            blocksCount,\r\n            _orderId,\r\n            _orderName,\r\n            _billType,\r\n            _value,\r\n            timeStamp\r\n        );\r\n        emit BlockAdded(blocksCount);\r\n        blocksCount++;\r\n    }\r\n}\r\n",
  "sourcePath": "C:\\Users\\dhanr\\OneDrive\\Documents\\Flutter projects\\apple_bhe\\contracts\\contracts\\blocks.sol",
  "compiler": {
    "name": "solc",
    "version": "0.5.16+commit.9c3226ce.Emscripten.clang"
  },
  "schemaVersion": "3.4.13",
  "updatedAt": "2023-04-06T09:58:13.871Z",
  "networkType": "ethereum",
  "devdoc": {
    "methods": {}
  },
  "userdoc": {
    "methods": {}
  }
}