{
    "contractName": "Transaction",
    "abi": [
        {
            "inputs": [
                {
                    "internalType": "address",
                    "name": "_sender",
                    "type": "address"
                },
                {
                    "internalType": "address",
                    "name": "_receiver",
                    "type": "address"
                },
                {
                    "internalType": "uint256",
                    "name": "_value",
                    "type": "uint256"
                },
                {
                    "internalType": "string",
                    "name": "_billType",
                    "type": "string"
                }
            ],
            "stateMutability": "nonpayable",
            "type": "constructor"
        },
        {
            "inputs": [],
            "name": "billType",
            "outputs": [
                {
                    "internalType": "string",
                    "name": "",
                    "type": "string"
                }
            ],
            "stateMutability": "view",
            "type": "function"
        },
        {
            "inputs": [],
            "name": "getTransaction",
            "outputs": [
                {
                    "internalType": "address",
                    "name": "",
                    "type": "address"
                },
                {
                    "internalType": "address",
                    "name": "",
                    "type": "address"
                },
                {
                    "internalType": "uint256",
                    "name": "",
                    "type": "uint256"
                },
                {
                    "internalType": "string",
                    "name": "",
                    "type": "string"
                }
            ],
            "stateMutability": "view",
            "type": "function"
        },
        {
            "inputs": [],
            "name": "receiver",
            "outputs": [
                {
                    "internalType": "address",
                    "name": "",
                    "type": "address"
                }
            ],
            "stateMutability": "view",
            "type": "function"
        },
        {
            "inputs": [],
            "name": "sender",
            "outputs": [
                {
                    "internalType": "address",
                    "name": "",
                    "type": "address"
                }
            ],
            "stateMutability": "view",
            "type": "function"
        },
        {
            "inputs": [],
            "name": "value",
            "outputs": [
                {
                    "internalType": "uint256",
                    "name": "",
                    "type": "uint256"
                }
            ],
            "stateMutability": "view",
            "type": "function"
        }
    ],
    "bytecode": "608060405234801561001057600080fd5b5060405161063438038061063483398101604081905261002f916100ac565b600080546001600160a01b038087166001600160a01b0319928316179092556001805492861692909116919091179055600282905560036100708282610229565b50505050506102e8565b80516001600160a01b038116811461009157600080fd5b919050565b634e487b7160e01b600052604160045260246000fd5b600080600080608085870312156100c257600080fd5b6100cb8561007a565b935060206100da81870161007a565b6040870151606088015191955093506001600160401b03808211156100fe57600080fd5b818801915088601f83011261011257600080fd5b81518181111561012457610124610096565b604051601f8201601f19908116603f0116810190838211818310171561014c5761014c610096565b816040528281528b8684870101111561016457600080fd5b600093505b828410156101865784840186015181850187015292850192610169565b600086848301015280965050505050505092959194509250565b600181811c908216806101b457607f821691505b6020821081036101d457634e487b7160e01b600052602260045260246000fd5b50919050565b601f82111561022457600081815260208120601f850160051c810160208610156102015750805b601f850160051c820191505b818110156102205782815560010161020d565b5050505b505050565b81516001600160401b0381111561024257610242610096565b6102568161025084546101a0565b846101da565b602080601f83116001811461028b57600084156102735750858301515b600019600386901b1c1916600185901b178555610220565b600085815260208120601f198616915b828110156102ba5788860151825594840194600190910190840161029b565b50858210156102d85787850151600019600388901b60f8161c191681555b5050505050600190811b01905550565b61033d806102f76000396000f3fe608060405234801561001057600080fd5b50600436106100575760003560e01c80633fa4f2451461005c57806359705f811461007857806367e404ce14610090578063b522b27e146100bb578063f7260d3e146100d0575b600080fd5b61006560025481565b6040519081526020015b60405180910390f35b6100806100e3565b60405161006f9493929190610276565b6000546100a3906001600160a01b031681565b6040516001600160a01b03909116815260200161006f565b6100c36101a2565b60405161006f91906102b3565b6001546100a3906001600160a01b031681565b6000805460015460025460038054859485946060946001600160a01b039283169491909216928190610114906102cd565b80601f0160208091040260200160405190810160405280929190818152602001828054610140906102cd565b801561018d5780601f106101625761010080835404028352916020019161018d565b820191906000526020600020905b81548152906001019060200180831161017057829003601f168201915b50505050509050935093509350935090919293565b600380546101af906102cd565b80601f01602080910402602001604051908101604052809291908181526020018280546101db906102cd565b80156102285780601f106101fd57610100808354040283529160200191610228565b820191906000526020600020905b81548152906001019060200180831161020b57829003601f168201915b505050505081565b6000815180845260005b818110156102565760208185018101518683018201520161023a565b506000602082860101526020601f19601f83011685010191505092915050565b6001600160a01b03858116825284166020820152604081018390526080606082018190526000906102a990830184610230565b9695505050505050565b6020815260006102c66020830184610230565b9392505050565b600181811c908216806102e157607f821691505b60208210810361030157634e487b7160e01b600052602260045260246000fd5b5091905056fea2646970667358221220446da982e097e5f07b1c4e9b47a841598c31058bc1895538d6c8fbd5d135922f64736f6c63430008130033",
    "sourcePath": "c:/Users/dhanr/OneDrive/Documents/Flutter projects/apple_bhe/solidity_folder/transaction.sol",
    "compiler": {
        "name": "solc",
        "version": "0.8.19+commit.7dd6d404"
    },
    "functionHashes": {
        "billType()": "b522b27e",
        "getTransaction()": "59705f81",
        "receiver()": "f7260d3e",
        "sender()": "67e404ce",
        "value()": "3fa4f245"
    },
    "gasEstimates": {
        "creation": {
            "codeDepositCost": "165800",
            "executionCost": "infinite",
            "totalCost": "infinite"
        },
        "external": {
            "billType()": "infinite",
            "getTransaction()": "infinite",
            "receiver()": "2403",
            "sender()": "2359",
            "value()": "2262"
        }
    }
}